:020000040800F2
:10000000380400201D0A0008FD080008FF08000849
:1000100001090008030900080509000800000000A4
:1000200000000000000000000000000007090008B8
:1000300009090008000000000B0900080D0900086C
:100040005D0A0008610A0008650A0008690A0008DC
:100050006D0A0008710A0008750A0008790A00088C
:100060007D0A0008810A0008850A00080F090008B7
:100070008D0A0008910A0008950A0008990A0008EC
:100080009D0A0008A10A0008A50A0008A90A00089C
:10009000AD0A0008B10A0008B50A0008B90A00084C
:1000A000BD0A0008C10A0008C50A0008C90A0008FC
:1000B000CD0A0008D10A0008D50A0008D90A0008AC
:1000C000DD0A0008E10A0008E50A0008E90A00085C
:1000D000ED0A0008F10A0008F50A0008F90A00080C
:1000E000FD0A0008010B0008050B000880B500F0B0
:1000F0001DF86C4800684FF47A71B0FBF1F0B0F174
:10010000807F12D268490002000A401E486067489A
:10011000F0220270002088600720086000F01DF8BF
:1001200000F031F800F092F8FEE7FEE780B500201D
:1001300000F0CCF84FF4804000F0CFF8012101200E
:1001400000F0D0F80121084600F0DEF8012144F269
:100150001520BDE8044000F0CEB880B50220ADF80F
:10016000000018208DF8030000A9514800F0DEF8C7
:100170001020ADF800000020ADF8020000A94D48A5
:1001800000F0D4F801BD10B590B04B4C204600F003
:1001900043F94A4805904A480690002007900120FC
:1001A0000890002009900A904FF480700B904FF453
:1001B00080600C9020200D904FF400500E90002095
:1001C0000F9005A9204600F088F90121204600F093
:1001D0009FF901220221204600F0A4F9002000909E
:1001E00001208DF804008DF805004FF46020029086
:1001F0000020039001208DF81000324C00A9204609
:1002000000F0CAF9002301220E21204600F012FA64
:100210000121204600F0E7F90121204600F0DAF93B
:10022000204600F0EAF9204600F0ECF90028FAD167
:10023000204600F0EBF9204600F0EDF90028FAD155
:100240000121204600F0EDF910B010BD10B51E4C94
:10025000E08BA08200202061E08204F110014FF0C9
:10026000804000F025FA6020208001206080A08B73
:10027000E0800220208121464FF0804000F05DFAAE
:1002800008214FF0804000F0A5FA01214FF0804096
:1002900000F096FA01214FF08040BDE8104000F0D8
:1002A00085BA00003000002010E000E023ED00E0FF
:1002B0000008014000100140080002404C240140A9
:1002C00034000020002401400000002013490A6887
:1002D00022F4E06210430860704710490A6822F473
:1002E0004042F7E70E4A0029116814BF084321EA8B
:1002F0000000106070470B4A0029116814BF0843C2
:1003000021EA000010607047074A0029116814BFF5
:10031000084321EA0000106070470000041002400A
:1003200014100240181002401C1002402DE9F04148
:10033000CB7803F00F02DB0644BF8B781A430B889F
:1003400001240F25DEB21EB3D0F800C0002604FA47
:1003500006F7BE460EEA0308F04514D14FEA860EB2
:1003600005FA0EF82CEA080C02FA0EFE4EEA0C0C06
:1003700091F803E0BEF1280F08BF476103D0BEF13A
:10038000480F08BF0761761C082EE0D3C0F800C0F4
:100390004FF48076B34226D3D0F804C0002606F18D
:1003A000080704FA07F7BE460EEA0308F04515D120
:1003B0004FEA860E05FA0EF82CEA080C02FA0EFE39
:1003C0004EEA0C0C91F803E0BEF1280F08BF47611C
:1003D00091F803E0BEF1480F08BF0761761C082EB4
:1003E000DDD3C0F804C0BDE8F08110B450F8041BA0
:1003F00081B102681218001D50F8043BDC0744BFAD
:10040000A9F10104E31852F8044B43F8044B091F07
:10041000F9D1EBE710BC704701684FF6FE7211404E
:1004200001600021016041608160C16049494A4A20
:10043000904204BF086840F00F004CD0474A9042F9
:1004400004BF086840F0F00045D0454A904204BF20
:10045000086840F470603ED0424A904204BF086889
:1004600040F4704037D0404A904204BF086840F4DE
:10047000702030D03D4A904204BF086840F47000BC
:1004800029D03B4A904204BF086840F0706022D0F7
:100490003849394A904204BF086840F00F001AD02A
:1004A000364A904204BF086840F0F00013D0344A46
:1004B000904204BF086840F470600CD0314A90420A
:1004C00004BF086840F4704005D02F4A904203D121
:1004D000086840F470200860704702682B4B1A408F
:1004E0008B681A430B6A1A430B691A434B691A4308
:1004F0008B691A43CB691A434B6A1A438B6A1A43B6
:100500000260CA6842600A6882604968C1607047D8
:100510000029016812BF41F001014FF6FE7211403F
:1005200001607047002A026814BF114322EA0101EA
:1005300001607047C1004CBF154916490968084061
:1005400018BF0120C0B27047C1004CBF0949014922
:100550000860704704000240080002401C0002408E
:100560003000024044000240580002406C0002404B
:100570008000024004040240080402401C040240BF
:100580003004024044040240580402400F80FFFF40
:1005900000040240000002404268434B1A400B68CE
:1005A0001A430B7942EA0322426082683F4B1A40A9
:1005B000CB681A438B681A434B7942EA4302826044
:1005C000C26A22F47002097C491EC9B242EA015192
:1005D000C16270470029816812BF41F001014908DA
:1005E000490081607047002981681ABF4FF480720A
:1005F000114321F4807181607047816841F00801E6
:100600008160704780680006C00E07E0816841F095
:1006100004018160704780680006800E00F00100D0
:1006200070470029816814BF41F4A00121F4A001A2
:100630008160704770B5032407250A290AD3A1F108
:100640000A067443C668A54026EA0505A3402B4365
:10065000C36007E04C430669A54026EA0505A340B0
:100660002B43036105231F24072A08D2521E5A4335
:10067000436B9440A34391401943416370BD0D2ADD
:1006800008D2D21F5A43036B9440A34391401943AD
:10069000016370BD0D3A5A43C36A9440A34391402D
:1006A0001943C16270BD0000FFFEF0FFFDF7F1FFCE
:1006B00030B50488DFF84821DFF82C31984210D09B
:1006C00090420ED0B0F1804F0BD0DFF82051A842FD
:1006D00007D0DFF81C51A84203D0DFF81851A84218
:1006E00004D14FF68F752C404D882C43DFF808510C
:1006F000A84208D0DFF80451A84204D04FF6FF45C5
:100700002C40CD882C4304808C8884850C880485FB
:1007100098420DD090420BD0DFF8E820904207D0ED
:10072000DFF8E420904203D0DFF8E020904201D1CE
:10073000097A01860121818230BD70B5028C4FF6A5
:10074000EF731A400284048C8288038B48F6FF45BD
:100750002B400D8843EA05234FF6DF752C400D89A9
:100760004E88354344EA0514DFF87C50A84203D094
:10077000DFF88C50A84213D14FF67F752C404D897D
:1007800044EA05144FF6BF752C408D8844EA0514E1
:100790004FF2FF352A408D89CE89354342EA8502E2
:1007A00082800383C9880187048470BD0029018881
:1007B00012BF41F001014FF6FE72114001807047F7
:1007C0000029018812BF41F080014FF67F7211406D
:1007D00001807047028B4FF2FF731A4042EA0121F9
:1007E0000183704701877047002C014000040040DE
:1007F00000080040000C00400010004000140040C1
:1008000000340140004001400044014000480140E4
:1008100082B03548016841F0010101604168334A06
:10082000114041600168324A11400160016821F4C1
:1008300080210160416821F4FE0141604FF41F01F5
:100840008160002101910091016841F480310160D3
:10085000016801F4003100910199491C019100994E
:1008600019B90199B1F5A06FF2D10168490C01F0F5
:10087000010100910099012930D11E490A6842F016
:1008800010020A600A68920892000A600A6842F040
:1008900002020A604168416041684160416841F478
:1008A00080614160416821F47C114160416841F4FC
:1008B000E8114160016841F08071016001688901BF
:1008C000FCD54168890889004160416841F0020116
:1008D0004160416801F00C010829FAD106484FF047
:1008E0000061016002B07047001002400000FFF894
:1008F000FFFFF6FE0020024008ED00E07047FEE733
:10090000FEE7FEE7FEE7704770477047704780B527
:100910000220FFF70FFEE0B10220FFF715FE0D48A1
:1009200000880D490A88232358430C4B984206D36C
:100930000B480088831E9A4205DA901C03E0022AC5
:100940002CBF501E0020088009884FF08040FFF720
:1009500049FF01BD340000201C000020C1D401006B
:100960001E00002010B5084979441C31074C7C4416
:100970001A34A14206D0081D0A685118884701465A
:10098000A142F8D110BD00BF2C0000004C000000B7
:1009900050F8041B61B150F8042BD30744BFA9F1F0
:1009A00001039A18002342F8043B091FFAD1EFE72C
:1009B00070470000DDFFFFFF04000000340000204E
:1009C0000000000027FAFFFF340000003C01000097
:1009D000000000200000000000F009F8002801D00D
:1009E000FFF7C0FF0020FFF781FB00F002F80120B5
:1009F000704780B500F002B800BF000007463846D7
:100A000000F002F8FBE7000080B5C046C046024A8D
:100A100011001820ABBEFBE726000200014880470A
:100A200001480047110800082D0A0008C046C046CA
:100A3000C046C046FFF7D0FFFFF760BFFFF75FBFBC
:100A4000FFF75EBFFFF75DBFFFF75CBFFFF75BBF60
:100A5000FFF75ABFFFF759BFFFF758BFFFF7FEBFB9
:100A6000FFF7FEBFFFF7FEBFFFF7FEBFFFF7FEBFBA
:100A7000FFF7FEBFFFF7FEBFFFF7FEBFFFF7FEBFAA
:100A8000FFF7FEBFFFF7FEBFFFF741BFFFF7FEBF57
:100A9000FFF7FEBFFFF7FEBFFFF7FEBFFFF7FEBF8A
:100AA000FFF7FEBFFFF7FEBFFFF7FEBFFFF7FEBF7A
:100AB000FFF7FEBFFFF7FEBFFFF7FEBFFFF7FEBF6A
:100AC000FFF7FEBFFFF7FEBFFFF7FEBFFFF7FEBF5A
:100AD000FFF7FEBFFFF7FEBFFFF7FEBFFFF7FEBF4A
:100AE000FFF7FEBFFFF7FEBFFFF7FEBFFFF7FEBF3A
:100AF000FFF7FEBFFFF7FEBFFFF7FEBFFFF7FEBF2A
:100B0000FFF7FEBFFFF7FEBF00000000000000007F
:100B100000000000000000000000000000000000D5
:100B200000000000B40068010000000000000000A8
:0C0B3000010203040607080900A24A04A1
:0400000508000A2DB8
:00000001FF
