:020000040800F2
:10000000380A0020DD4B000833440008354400085E
:1000100037440008394400083B4400080000000051
:100020000000000000000000000000003D44000847
:100030003F44000800000000414400084344000819
:100040001D4C0008214C0008254C0008294C0008D4
:100050002D4C0008314C0008354C0008394C000884
:100060003D4C0008414C0008454C0008494C000834
:100070004D4C0008514C0008554C0008594C0008E4
:100080005D4C0008614C0008654C0008694C000894
:100090006D4C0008714C0008754C0008894400083C
:1000A0007D4C0008814C0008854C0008894C0008F4
:1000B000554600081947000800000000E7470008FF
:1000C0004F49000800000000000000009D4C00089F
:1000D00000000000A14C0008A54C00080000000032
:1000E00043450008AD4C0008B14C0008DFF8A806F5
:1000F000016899B94FF4803181604FF480514160BB
:100100004FF0FF31C160016104214161DFF88C16BD
:100110000422C1F8B821DFF8881601600120704779
:1001200001F1080313F0070308BF002307D001F112
:10013000080303F00703C3F1080303F0070359188A
:10014000D21A8161C26042F001034B60511828222B
:100150004A60DFF844160969C16170472DE9F04132
:1001600001F1080414F0070408BF002407D001F1CE
:10017000080404F00704C4F1080404F0070461183B
:1001800002F1080414F0070408BF002407D002F1AC
:10019000080404F00704C4F1080404F00704A518D7
:1001A0005A186C1AE41A43F003034B60AA4201D3B5
:1001B00001F012B96E68F307FAD5102CF8D38369F1
:1001C0009D4207D1C368E318C360826143F0010018
:1001D000506042E143699D4208D18368E31883601F
:1001E000426143F0010050609B5036E106F003038A
:1001F000012B40F0A080F308DB004FEAD30EBEF1E4
:10020000200F26D2AF68D5F80CC06545D0D0BD42CE
:10021000CED0674506D10668012707FA0EF7BE4320
:10022000066086E04FEA4E0600EB860606F1280ED1
:10023000774503D0D0F810E07745B9D32836B445D8
:1002400002D00669B445B3D3C7F80CC0CCF8087027
:100250006FE0AF69EE68AE420AD0D5F808C0D0F8BA
:1002600010E0F445A4D3CCF80C60C6F808C024E034
:1002700005F2140CDCF8006046B905F1100CDCF84E
:100280000060D6B102E0F446DCF8006006F2140E1D
:10029000DEF80080B8F1000FF5D106F1100EDEF89F
:1002A0000080B8F1000FEED1D0F810E0F445FFF473
:1002B0007FAF4FF0000ECCF800E0002F39D0D5F81A
:1002C0001CC000EB8C0C0CF2301CDCF800E0754517
:1002D0000BD1CCF800609EB946680127D5F81CC048
:1002E00007FA0CF7BE43466023E0D0F810C067451C
:1002F000FFF45EAFD7F810C0AC450CBF3E617E6125
:10030000BEB1D0F810C06645FFF452AFB7612F6997
:1003100037B1D0F810C06745FFF44AAF3761BE610E
:100320006F6937B1D0F810C06745FFF441AF77610E
:10033000BE615D191C196B685B085B006B6044F063
:1003400001035360A450E308202B1BD25D0000EB97
:10035000850505F228052E46102CFFF429AF01274C
:1003600007FA03F304681C4204BF2343036004D06C
:10037000AE6800698642FFF41BAFAA60F260966027
:10038000D5606AE0230A08BF002523D0B3F5803F7B
:1003900028BF1F251ED2A3F580752D0C05F008057A
:1003A000AB40A3F58056360C06F00406B340A3F527
:1003B00080473F0C07F00207C5F10E05AD1BED1B92
:1003C000BB4005EBD333DD1D24FA05F505F001052F
:1003D00005EB430500EB850303F23013D5610026DE
:1003E00056611661012707FA05F64768374207D1BB
:1003F00046EA070444601A609361D26092602CE080
:100400001B681F2D0EBF00256D08C5F1190504FAE4
:1004100005F500E033465E68F608F600A6420ED009
:10042000EE0F03EB860606F110076D003E68002E06
:10043000F0D100698742FFF4BBAE3A60DCE79C680C
:1004400000698342FFF4B4AE8442FFF4B1AEE260CF
:100450009A609460D3600020906101F10800BDE8CB
:10046000F0812DE9FE4F0446A56904F2BC102E462A
:1004700001688E4203D3426851188E4202D38068CD
:100480000028F5D14168006801EB0008A8F12F00B1
:1004900000F1080111F0070108BF002107D000F1A9
:1004A000080101F00701C1F1080101F0070101EBAA
:1004B000000A05F11000824538BFAA460AF1080B70
:1004C0000AF1180900270198A0F128020099204696
:1004D000FFF726FE1BF0070022D11B20CAF80400FC
:1004E00004F2BC10B0E80E10ABE80E10ABF1100B2C
:1004F0000098C4F8BC010198C4F8C0010298C4F87F
:10050000C801C4F8C4B100E0814609F10400072124
:10051000C9F804107F1C011D4145F5D3022F01DAF3
:1005200000F05ABFAA4500F09380AAEB06004119DB
:100530004A68520852004A6040F001016960405127
:10054000C108202919D24A0004EB820202F22802D3
:1005500013461028E4D3012606FA01F0216801426F
:1005600006D1084320609560DD60AB60EA606FE013
:10057000936820698342F6D2D2E7010A08BF0022BD
:1005800023D0B1F5803F28BF1F221ED2A1F5807273
:10059000120C02F008029140A1F580531B0C03F0ED
:1005A00004039940A1F58046360C06F00206C2F11C
:1005B0000E02D21A921BB14002EBD131CA1D20FAB1
:1005C00002F202F0010202EB410204EB820101F2AD
:1005D0003011EA6100236B612B61012606FA02F3F8
:1005E00066681E4207D143EA060060600D60A9619B
:1005F000ED60AD602CE009681F2A0EBF0022520892
:10060000C2F1190200FA02F200E019464B68DB0859
:10061000DB0083420ED0D30F01EB830303F11006FE
:1006200052003368002BF0D120698642FFF478AF86
:100630003560DCE7886822699142FFF471AF90422F
:10064000FFF46EAFC5608D60A860E9600020A8610E
:1006500000F054BBF8B504460D464F4E306808B95B
:10066000FFF744FD00F0D4FE010000F091800A681D
:1006700011F1010F00F08C80D4F8B0011018C4F80B
:10068000B001D4F8B401D4F8B031984238BF18465C
:10069000C4F8B401A06968BB206908B1814200D2E6
:1006A0002161C4F8BC11C4F8C0210020C4F8C801FD
:1006B000306860624FF0FF3020622046202300F255
:1006C0002806F660B66008305B1EF8D133488442D5
:1006D00004D1283A2046FFF723FD48E054F8040CE3
:1006E000C00814EBC00008385118091AA1F12802FB
:1006F0000146EFE704F2BC10034600E09B68BBB183
:100700005E681F68F619B142F8D11E7B36070FD418
:100710003E46A769B7420BD35F68D4F818C0BE192C
:10072000B44505D2D0195860E0681218A169D1E724
:100730002369994238BF21610346501800E09B6845
:100740008BB11E688642FAD1187B00070BD4304665
:1007500019605E6892195A602B460246204601B025
:10076000BDE8F040FAE400232046FFF77AFEE06897
:1007700085420DD2401BE060A1696A18A26140F079
:100780000100506045F00300486001F10800F2BD2F
:100790000020F2BD00000000E8050020B8000020A5
:1007A0006859883C2DE9F04100224B420C0A08BFF1
:1007B000002423D0B4F5803F28BF1F241ED2A4F507
:1007C00080752D0C05F00805AC40A4F58056360C5C
:1007D00006F00406B440A4F580473F0C07F002077A
:1007E000C5F10E05AD1BED1BBC4005EBD434E51D7A
:1007F00021FA05F505F0010505EB440400EB84053D
:10080000D5F8305155B31F2C0EBF00266608C6F12F
:10081000190601FA06F6002700E07600D5F804C0B4
:100820004FEADC0C4FEACC0CACEB010C9C4502D23D
:100830002A4663467BB1D5F814C04FEAD67E05EB55
:100840008E052D69BCF1000F02D0AC4518BF67467C
:10085000002DE2D13D4675BB002A3DD1012505FAA8
:1008600004F4640065422C4345682C4000F051813B
:1008700065422C40651E2C0B04F0100425FA04F68A
:10088000750905F00805EE40B70807F00407FE40BB
:100890004FEA560C0CF0020C26FA0CF6C6F3400E8A
:1008A0002C193C196444744426FA0EF52C1900EBFB
:1008B0008404D4F830517DB100E025466C68E4082A
:1008C000E400641A9C423CBF23462A462C69002C53
:1008D000F3D16D69002DF1D1002A00F01A818468EE
:1008E000641AA34280F0158116460469A64206D315
:1008F0008C18CD185768FF08FF00AF4201D000F0F8
:100900006BBDA642FBD29769D66896420AD0D2F850
:1009100008C0D0F810E0F445F1D3CCF80C60C6F86C
:1009200008C023E002F2140CDCF8006046B902F1C2
:10093000100CDCF80060CEB102E0F446DCF8006098
:1009400006F2140EDEF80080B8F1000FF5D106F1C2
:10095000100EDEF80080B8F1000FEED1D0F810E0F4
:10096000F445CCD34FF0000ECCF800E0002F35D08A
:10097000D2F81CC000EB8C0C0CF2301CDCF800E050
:1009800072450BD1CCF8006096B946680127D2F8C1
:100990001CC007FA0CF7BE4346601FE0D0F810C039
:1009A0006745ACD3D7F810C094450CBF3E617E615B
:1009B000A6B1D0F810C06645A1D3B76117692FB1B1
:1009C000D0F810C067459AD33761BE6157692FB11F
:1009D000D0F810C0674592D37761BE61102B08D262
:1009E00045F003005060A818416841F001014160E2
:1009F0008CE041F00301516043F0010161601B5143
:100A0000D908202918D24B0000EB830303F22803F6
:100A10001E46012505FA01F105680D4204BF294370
:100A2000016004D09E6800698642FFF468AF9C6054
:100A3000F460A660E36069E0190A08BF002623D0CD
:100A4000B1F5803F28BF1F261ED2A1F580752D0C61
:100A500005F00805A940A1F58056360C06F00406FD
:100A6000B140A1F580473F0C07F00207C5F10E0524
:100A7000AD1BED1BB94005EBD131CD1D23FA05F5BA
:100A800005F0010505EB410600EB860101F230118E
:100A9000E6610025656125610125B54047682F4263
:100AA00007D13B462B4343600C60A161E460A46026
:100AB0002CE009681F2E0EBF00257508C5F1190529
:100AC00003FA05F500E031464E68F608F6009E424E
:100AD0000ED0EE0F01EB860606F110076D003E68A2
:100AE000002EF0D100698742FFF409AF3C60DCE7DB
:100AF0008B680569A942FFF402AFAB42FFF4FFAE79
:100B0000DC608C60A360E1600020A06102F108005D
:100B100000E00020BDE8F0812DE9F0414268134675
:100B20005B421A40531E1A0B02F01002D3405C09BC
:100B300004F00804E3409D0805F00405EB405E085E
:100B400006F00206F340C3F34007A218AA18B21831
:100B5000BA18FB409A1800EB8202D2F830412346C3
:100B60006268D208D200521A07E06568ED08ED000D
:100B70006D1A95423CBF2A4623462569002D14BFB5
:100B80002C466469002CF0D11E460469A64206D3A7
:100B9000CC188D185F68FF08FF00AF4201D000F04D
:100BA0001BBCA642FBD29F69DE689E420AD0D3F8E6
:100BB00008C0D0F810E0F445F1D3CCF80C60C6F8CA
:100BC00008C023E003F2140CDCF8006046B903F11E
:100BD000100CDCF80060CEB102E0F446DCF80060F6
:100BE00006F2140EDEF80080B8F1000FF5D106F120
:100BF000100EDEF80080B8F1000FEED1D0F810E052
:100C0000F445CCD34FF0000ECCF800E0002F35D0E7
:100C1000D3F81CC000EB8C0C0CF2301CDCF800E0AC
:100C200073450BD1CCF8006096B946680127D3F81C
:100C30001CC007FA0CF7BE4346601FE0D0F810C096
:100C40006745ACD3D7F810C09C450CBF3E617E61B0
:100C5000A6B1D0F810C06645A1D3B7611F692FB106
:100C6000D0F810C067459AD33761BE615F692FB174
:100C7000D0F810C0674592D37761BE61102A08D2C0
:100C800045F003005860E818416841F001014160F7
:100C900030E041F00301596042F0010161601251FE
:100CA00087682FB341694FEAD70CBCF1200FBFF41E
:100CB00076AF4FEA4C0500EB850505F228052E4678
:100CC000102FFFF46CAF012707FA0CF7D0F800C023
:100CD0001CEA070F04BF47EA0C07076004D0AE68A0
:100CE0000769BE42FFF45BAFA960F1608E60CD6022
:100CF0008260446103F10800BDE8F08103B0BDE803
:100D0000F08FF8B50446012000F0B7FBF52C80F019
:100D1000D3800B2C31BF102404F10B00C408E40075
:100D2000E308DFF8B006016821FA03F515F00302C5
:100D300033D0EA4302F00102D3185A0000EB8202DA
:100D400002F22805AA68DC005668F608F600A642FA
:100D500001D000F041BB9668AA42FAD0B242F8D066
:100D60005768FF08FF00A742F3D1B54205D101251E
:100D700005FA03F39943016004E000698642E8D371
:100D8000AE60F56044F003005060A018416841F087
:100D90000101416002F10805D6E08268A24280F0BC
:100DA0009E80002D00F07F80012202FA03F676007B
:100DB00005FA03F3754235432B405D422B405D1E1F
:100DC0002B0B03F0100325FA03F6750905F008054F
:100DD000EE40B70807F00407FE404FEA560C0CF04F
:100DE000020C26FA0CF6C6F3400EEB18FB1863440F
:100DF000734426FA0EF5ED186B0000EB830303F243
:100E00002806B368EF00D3F804C04FEADC0C4FEAC1
:100E1000CC0CBC459DD1D3F808C0B34299D06345F2
:100E200097D0664502BF02FA05F5A943016006D0D6
:100E300001698C458DD3C6F808C0CCF80C60391B0D
:100E400044F003055D60E41841F001056560095157
:100E500086681EB34569F708202FBFF47AAF4FEAC2
:100E6000470C00EB8C0C0CF2280CE646102EFFF41D
:100E700070AFBA400668164204BF3243026005D024
:100E8000DCF808E002699645FFF463AFCCF808503F
:100E9000CEF80C50C5F808E0C5F80CC0816044617C
:100EA00003F1080550E0416800293AD02146FFF7D8
:100EB00033FE050013D047E014F1400F28BF4FF078
:100EC000FF340CD204F10B00C408E400DFF8040581
:100ED000416821B12146FFF765FC050034D1DFF8F8
:100EE000F4048268A2421CD3131B4169102B0AD35D
:100EF00062184261836043F0010050609B5044F0EF
:100F0000030048600AE000238360436142F003006D
:100F100048605018426842F00102426001F1080541
:100F200012E0C1688C420BD2091BC1608269A31810
:100F3000836141F00101596044F00300506029E7EA
:100F40002146FFF787FB0546012000F0C1FA28463D
:100F5000F2BD002800D17047F8B5A0F108040120C7
:100F600000F08BFADFF86C542A6994421ED3636850
:100F700003F00300012819D0D808C0000119DE07CA
:100F800029D4266813F0030300F0E280301873427E
:100F90001C1994420AD36B699C4200F0CA80F30882
:100FA000202B67D2A668E768BC4201D100F014BAD2
:100FB000B442FBD0D4F804C04FEADC0C4FEACC0CAE
:100FC000BCEBC30FF2D1BE4243D12A68012606FA18
:100FD00003F39A432A608C42E8D24A68D307E5D5E6
:100FE000930700F15481AB69994240F0B580E968FC
:100FF0004018E860AC6140F00101616069698C42B1
:1010000002D100216961A960E969814280F0A08074
:10101000DFF8BC03006808B9FFF768F8A869002882
:1010200000F09680E96829290BD305F2BC121368F9
:10103000984203D35468E318984202D39268002A76
:10104000F5D1E869884280F083804FF0FF30E86195
:101050007EE05B0005EB830303F1280C664501D0BD
:101060009642A3D328339F4201D097429ED3F76084
:10107000BE60B0E7A669E368A34205D0A7689742BF
:1010800094D3FB609F601DE004F214073B6833B902
:1010900004F110073B68ABB101E067463B6803F21F
:1010A000140CDCF800E0BEF1000FF6D103F1100CD7
:1010B000DCF800E0BEF1000FEFD19742FFF476AF0D
:1010C00000223A60002E86D0E26905EB820202F22D
:1010D00030121768BC4208D113607BB96A680123DB
:1010E000E669B3409A436A6075E72A699642FFF45D
:1010F0005DAF3269A2420CBF33617361002B3FF4D4
:101100006AAF2A699342FFF451AF9E6122692AB106
:101110002E69B242FFF44AAF1A6193616269002AF4
:101120003FF459AF2E69B242FFF440AF5A61936168
:1011300051E70A7902F00302032A7FF44CAFA8605A
:101140004A68520852004A6040F001016160005153
:10115000012000F0BDF9F1BD6B69994204D1A96885
:101160004018A8606C61EFE7D208D2001018D308CD
:10117000202B24D28E68CF68B9423FF417AFB1421A
:101180003FF414AFBE4205D1296801229A40914331
:10119000296073E0590005EB810101F128029642B4
:1011A00003D02A699642FFF401AF28318F4203D061
:1011B00029698F42FFF4FAAEF760BE605EE08B698A
:1011C000CA688A4207D08E682F69BE42FFF4EEAE2D
:1011D000F26096601EE001F21406326832B901F145
:1011E00010063268B2B101E03E46326802F21407DE
:1011F000D7F800C0BCF1000FF6D102F11007D7F804
:1012000000C0BCF1000FEFD12F69BE42FFF4CEAE9B
:101210000027376093B3CE6905EB860606F23016D9
:101220003768B9420BD1326016468EB96A6801231D
:10123000C96903FA01F122EA010169601EE02E6921
:10124000B342FFF4B3AE1E698E420CBF1A615A61FD
:10125000A2B12E69B242FFF4A9AE93610B692BB122
:101260002E69B342FFF4A2AE13619A61496929B1B4
:101270002B699942FFF49AAE51618A6140F00101F5
:101280006160005169698C4208D1A86060E752082A
:1012900052004A6040F0010161600051C1082029FC
:1012A0001BD24A0005EB820202F2280213461028E4
:1012B000FFF47CAE012606FA01F02968014204BF62
:1012C0000843286004D0936828698342FFF46EAE17
:1012D0009460DC60A360E2603AE7010A08BF002284
:1012E00023D0B1F5803F28BF1F221ED2A1F5807206
:1012F000120C02F008029140A1F580531B0C03F080
:1013000004039940A1F58046360C06F00206C2F1AE
:101310000E02D21A921BB14002EBD131CA1D20FA43
:1013200002F202F0010202EB410205EB820101F23E
:101330003011E261002363612361012606FA02F3A2
:101340006E681E4207D143EA060068600C60A16126
:10135000E460A4602CE009681F2A0EBF0022520836
:10136000C2F1190200FA02F200E019464B68DB08EC
:10137000DB0083420ED0D30F01EB830303F1100691
:1013800052003368002BF0D128698642FFF40EAE7C
:101390003460DCE788682A699142FFF407AE904226
:1013A000FFF404AEC4608C60A060E1600020A06126
:1013B000286A401E28627FF4CBAED5F8C40118B964
:1013C0004FF0FF302862C3E680680028FCD1F7E7C1
:1013D000E8050020B800002080B5012000F086B8A4
:1013E00000BF10B450F8041B81B102681218001D30
:1013F00050F8043BDC0744BFA9F10104E31852F89C
:10140000044B43F8044B091FF9D1EBE710BC7047BC
:1014100006490868002801D0002070470448086089
:101420000449C908C900091A016070473006002044
:10143000380A0020380C002070B52B4C2068D8B139
:10144000251D0826284600F05CF82D1D761EF9D1D2
:1014500004F1240000F057F804F1280000F053F8DC
:1014600004F12C0000F04FF804F1300000F04BF8CC
:1014700004F1340000F047F870BDF8B504461A4D89
:101480002868D8B92E1D0827304600F039F8361DD7
:101490007F1EF9D105F1240000F034F805F1280091
:1014A00000F030F805F12C0000F02CF805F13000C8
:1014B00000F028F805F1340000F024F8012028603D
:1014C000052C04D205EB8400243000F01DF8F1BD9A
:1014D000052800D3704780B5034901EB8000243014
:1014E00000F013F801BD00005005002080B5C04693
:1014F000C046024A11001820ABBEFBE726000200DE
:101500007047704770477047704770472DE9F04F3C
:10151000A5B017461C460FF6B455D5E90023CDE912
:10152000122303AD6860A9600020E86214AE4FF09A
:101530000A096FF0004800E057440020ADF80200AF
:1015400012AB4FF0FF3239460DF1020001F019F8ED
:101550008246BAF1010F08DA3878B0F1010A6AEB75
:101560000A0A6FEA0A004FEAD07ABDF8020025287D
:101570000CBFAAF101025246012A0ADB394602A831
:1015800000F0D4FF002804D54FF0FF3025B0BDE8AF
:10159000F08FBDF80200252807D100206861A861FE
:1015A000E86128626862A86205E00028C4D1E86AA0
:1015B000ECE740F0010017F8011F2029F9D023299A
:1015C0000DD02B2904D02D2906D030290AD00CE0CB
:1015D00040F0020080B2EEE740F00400FAE740F08D
:1015E0000800F7E740F01000F4E72A290DD122683F
:1015F000111D216011686963002904D5494269639E
:1016000040F0040080B27F1C10E00021696307E015
:10161000696B414503D009FB0121303969637F1CA7
:101620003A78A2F13001C9B20A29F1D339782E29CA
:101630001CBF4FF0FF3129631BD117F8011F2A2966
:1016400006D12268111D2160116829637F1C10E0FA
:101650000021296307E0296B414503D009FB0121E3
:10166000303929637F1C3A78A2F13001C9B20A29C6
:10167000F1D3288739780FF6E86000F0A3FF08B1AE
:1016800017F8010B8DF846009DF84600682804D134
:10169000387868280AD1622005E06C2806D13878AD
:1016A0006C2803D171208DF846007F1C14A8286196
:1016B0003A781046253827D01C3800F08780001F64
:1016C000022840F28380133800F0AC8009387DD0C6
:1016D000801E00F04481401E00F0ED80401E022874
:1016E00074D9001F00F0E780401F44D0401E00F076
:1016F0009980401E31D0C01E0CD0801E00F0928018
:10170000C01E00F08F804BE16869411C6961252192
:1017100081554FE19DF846006C28216813D0081DC3
:1017200020600868E8602A6B002A08D4002100F0D5
:1017300055FF00281ABFE968401A286B01E000F045
:1017400079FFA86136E1081D2060096802A800F051
:10175000C5F9002840F12E811FE12168081D206095
:1017600008680021CDE9020114A8E860782102A8E8
:1017700000F015FB1EE19DF8460062281FD0682886
:101780000DD06A2812D06C2802D071280ED074288F
:101790002168081D20600868E96A01600AE1E86ABA
:1017A0002268111D21601168088003E1E86AC117F1
:1017B00023681A1D22601A68C2E90001FAE0E86A8B
:1017C0002268111D216011680870F3E02068C01DB7
:1017D00020F007002060034603F108002060D3E9F1
:1017E0000001CDE90201002904D56869411C696145
:1017F0002D210DE0288F810704D56869411C69619E
:101800002B2105E0C00704D56869411C69612021CE
:101810008155686914A94018E860114602A800F0D3
:101820004DFBC7E09DF846006C280FD0712801D011
:101830006A280BD12068C01D20F0070020600346F5
:1018400003F108002060D3E9000104E02168081DCD
:10185000206008680021CDE902019DF84600682853
:101860000CD0622806D0742801D07A280CD1DDE98A
:10187000020106E0DDE90201C0B202E0DDE9020199
:1018800080B20021CDE9020195F83800000760D54B
:10189000DDE9020109B900285BD042F02000782878
:1018A00057D16869411C6961302181556869411CC3
:1018B000696182554DE09DF8460062280CD0682889
:1018C00010D06A281AD06C2824D0712816D0742819
:1018D00020D07A280CD01DE02168081D206091F9E5
:1018E00000001BE02168081D2060B1F9000015E030
:1018F0002168081D20600868002110E02068C01DD4
:1019000020F007002060034603F108002060D3E9BF
:10191000000104E02168081D20600868C117CDE9B6
:101920000201DDE9020100290EDB288F810704D5C1
:101930006869411C69612B210AE0C00709D5686903
:10194000411C6961202103E06869411C69612D2106
:101950008155686914A94018E860114607E79DF8A9
:1019600046006C2807D06869411C69612268111D16
:1019700021601168CCE62168081D20600868ADF878
:1019800004000020ADF806004FF0FF30286301A9E5
:1019900002A800F0A3F800280CD54FF0FF300AE0B1
:1019A0006869411C6961252181551AB16869411C2A
:1019B0006961825500207F1C00287FF4E5AD686BCB
:1019C0006969401A296A401AA969401A696A401A65
:1019D000E969401AA96AA0EB010A95F838004007A6
:1019E00011D420208DF80000BAF1010F0BDBD34693
:1019F000012200A902A800F099FD00287FF4C4ADDF
:101A0000BBF1010BF4D16A6914A902A800F08EFDA4
:101A100000287FF4B9AD30208DF80000D5F820B053
:101A2000BBF1010F0ADB012200A902A800F07EFD34
:101A300000287FF4A9ADBBF1010BF4D1AA69E968D4
:101A400002A800F073FD00287FF49EAD30208DF8D1
:101A50000000D5F824B0BBF1010F0ADB012200A978
:101A600002A800F063FD00287FF48EADBBF1010BEE
:101A7000F4D1EA69A869E968411802A800F056FDA6
:101A800000287FF481AD30208DF80000D5F828B013
:101A9000BBF1010F0ADB012200A902A800F046FDFC
:101AA00000287FF471ADBBF1010BF4D195F838003B
:101AB00040077FF542AD20208DF80000BAF1010FFC
:101AC000FFF63BAD012200A902A800F02FFD00287F
:101AD0007FF45AADBAF1010AF4D12EE52DE9F04FA9
:101AE00093B007460C46D7F83490B9F1000F48BFC1
:101AF0006FF0004900F0B9FDB96B00EB010A0FF679
:101B00006822D2E90001CDE9010197F83C004007C5
:101B100002D4BAF1410F05D20DF10C0B4FF0400A7F
:101B200000250AE05046FFF7ECF85FEA000BF7D11A
:101B30004FF0FF3030E1A9EB0809B9F1010FC0F215
:101B4000A08001AA21880DF1010000F093FD5FEA59
:101B5000000804D4208828B9B8F1010802D54FF054
:101B6000FF3512E1C145C0F28C80B86908EB000175
:101B70008A4577D2BD634042796A401AF969401AB2
:101B8000B96A401A396A401AF96A451A97F83C004E
:101B900040070ED420208DF80000012D09DB2E46D1
:101BA000012200A9384600F0C1FC0028D7D1761EDA
:101BB000F6D1BA695946384600F0B8FC0028CED1B3
:101BC00030208DF800007E6A012E08DB012200A97A
:101BD000384600F0ABFC0028C1D1761EF6D1FA6978
:101BE0003969384600F0A2FC0028B8D130208DF8C1
:101BF0000000BE6A012E08DB012200A9384600F071
:101C000095FC0028ABD1761EF6D13A6AF86939699D
:101C10004118384600F08AFC0028A0D130208DF809
:101C20000000FE6A012E08DB012200A9384600F000
:101C30007DFC002893D1761EF6D197F83C00400732
:101C40000ED520208DF80000012D09DB012200A90E
:101C5000384600F06BFC00287FF481AF6D1EF5D193
:101C60000025BD6142460DF10101B869584400F0FC
:101C70000FFDB8694044B86134F8020B00287FF4C6
:101C80005AAFB86BB969401A796A401AF969401AB3
:101C9000B96A401A396A401AF96AA0EB010897F844
:101CA0003C00400710D420208DF80000B8F1010F4F
:101CB0000ADB4446012200A9384600F037FC002820
:101CC0007FF44DAF641EF5D1BA695946384600F02D
:101CD0002DFC00287FF443AF30208DF800007C6A93
:101CE000012C09DB012200A9384600F01FFC002866
:101CF0007FF435AF641EF5D1FA693969384600F0D2
:101D000015FC00287FF42BAF30208DF80000BC6A52
:101D1000012C09DB012200A9384600F007FC00284D
:101D20007FF41DAF641EF5D13A6AF869396941182C
:101D3000384600F0FBFB00287FF411AF30208DF80F
:101D40000000FC6A012C09DB012200A9384600F0E2
:101D5000EDFB00287FF403AF641EF5D197F83C003B
:101D6000400710D520208DF80000B8F1010F0ADBE4
:101D7000012200A9384600F0D9FB00287FF4EFAE1D
:101D8000B8F10108F4D1BD61BD6303A883451CBF50
:101D90005846FFF7DEF8284613B0BDE8F08F2DE96E
:101DA000FA4786B00546686900909DF818006F28CC
:101DB00008BF082705D040F02000782814BF0A2764
:101DC00010273C24D5E90001064689469DF81820D5
:101DD000642A01D0692A04D1002902DA764269EB2B
:101DE0004909B9F1000F0DD166B9686B50B9082FD8
:101DF0003FD195F83C0000073BD5641E0098302188
:101E0000215436E0A4F101084446F817CDE90470E6
:101E100030464946DDE9042300F07CFCCDE90201AF
:101E2000B246DDE90223DDE90401A0FB0269504668
:101E3000801B3030C0B23A2803D39DF818105139B6
:101E40000818009908F80100DDE90269B9F1000FEE
:101E500000D126B12869009961188842D2D3082F91
:101E600007D195F83C00000703D50098205C302886
:101E7000C3D1C4F13C00E861009961182961696B24
:101E8000884207DA081A6862A88F4FF6EF71084097
:101E9000A88710E000290ED595F83C1001F0140138
:101EA000102908D1A96BAA69891A6A6A891A0C1AB9
:101EB000012CA8BF6C6208B0BDE8F0872DE9F24F95
:101EC0008EB0054604AFD5E90001CDE902019DF8C9
:101ED000380040F020008DF8000061280BD0686BBE
:101EE000002848BF062005D405D19DF800006728CA
:101EF00001D1012068636968C1F30A5040F2FF72A2
:101F0000904225D0012819DA284600F091FC0128DA
:101F100014DB002400209DF80010612940D12A69BB
:101F2000511C29613021117029694A1C2A619DF8D0
:101F30003820612A0CBF782258222DE040F2FE3171
:101F40006A6861F31E526A60441A4FF0FF30E2E79C
:101F5000080301D1286870B10320E8619DF83800BA
:101F60006138C0B21A2811D30FF208610322286920
:101F700000F08EFB9EE10320E8619DF83800613897
:101F8000C0B21A2805D30FF2F451EFE70FF2E05177
:101F9000ECE70FF2E451E9E70A70A969891CA9612D
:101FA00010B90026B0467BE19DF80000612840F0A2
:101FB0009780686B00284CBF2126461C36B2771CE0
:101FC000D5E900ABDDE902010022002300F052FC5C
:101FD0003ABF8BF00040CDE902A0CDE902ABA4F1FD
:101FE00004088DF810200DF11109012F33DBDDE914
:101FF00002010022002300F055FC2CD21C2102A873
:1020000000F068FCDDE9020100F0F0FC0446FF1F6F
:10201000012F09DB00F016FD02460B46DDE9020147
:1020200000F028FDCDE9020109F207000721012C8B
:102030000BDB491E5EBF04F00F0200F8012D2411D6
:10204000F5D502E0002200F8012D491EFAD500F274
:102050000709012FCBDA0DF11100A9EB00010DF1F9
:102060001107B142B8BF0E4636B2002E31D4304609
:10207000884206DA04A941184978082928BF0F21A7
:1020800000D2002104AA821800E0761E401E12F839
:1020900001398B42F9D00F2904D104A941184A789B
:1020A000521C4A70002803D504AF761C08F10408BE
:1020B00036B2701E0DD4C1190A783032D2B23A2A23
:1020C00003D39DF838303A3B9A1801F80129401E95
:1020D000F2D5686B002840F1E380701E6863DFE092
:1020E000DDE902010022002300F0C4FB05D2DDE996
:1020F000020181F00041CDE9020124B247F297507C
:1021000060436E4990FBF1F80FFA88F8C8F10704B4
:102110000027DFF8AC91012C19DBDDE902ABE00709
:1021200007D5504659463A464B4600F063FD824675
:102130008B466410384649463A464B4600F05AFDF5
:1021400007468946002CEAD1CDE902AB21E0644282
:102150009246DFF870B114D0E00707D550465946D3
:102160003A464B4600F046FD82468B4664103846A0
:1021700049463A464B4600F03DFD07468946002C4D
:10218000EAD1DDE9020152465B4600F005FECDE9E9
:1021900002019DF8000066280CBF08F10A00062025
:1021A000696B4618142EA8BF132630208DF8100036
:1021B0000DF11104444F012E2FDBDDE9020100F087
:1021C0002BFC04F1080104220A23B0FBF3F403FB07
:1021D0001400303001F8010DB4FBF3F003FB1043A1
:1021E000303301F8013D521EEED101F10804083EE2
:1021F000012EE0DBDDE9020100F00EFC00F02CFC1A
:1022000002460B46DDE9020100F034FC00223B46A9
:1022100000F0F0FCCDE90201CFE70DF11100201A2A
:102220000DF111079DF81110302906D1401EA8F1BB
:10223000010817F8011F3029F8D09DF80010662911
:1022400004BF0FFA88F808F1010103D065290CBF1B
:10225000012100216A6B8E1836B2B042B8BF064623
:1022600036B2002E1CD43146814204DAC85D3528CE
:1022700028BF392000D23020CA19521E00E0761E35
:10228000491E12F801398342F9D0392802D1C85DBC
:10229000401CC855002903D57F1E761C08F1010893
:1022A0000FFA88F0009033B23A469DF8381028466D
:1022B00000F010F80FB0BDE8F08F0000A08601001C
:1022C000000024400000F03F84D797410000000048
:1022D000000000002DE9F04786B006468A46904689
:1022E0001C46BDF9385000F098FE406A90F8009006
:1022F000776B012C02DA01240FF284284AF02000C7
:10230000662807D067287AD16FF003018D427CDB05
:10231000BD427ADA6D1C66280AD096F83C000007A8
:1023200002D4BC42B8BF27462DB27F1B48BF00274E
:102330003069F1692DB2012D21DA4A1C30230B548A
:10234000012F03DA96F83C10090702D502F8009035
:10235000521CF261EF42B8BF7D422DB26942B162B8
:10236000EF19A742B8BF3C4624B234622246414628
:10237000F369181800F08CF9381BF062BFE00818F8
:10238000AC4216DA2246414600F082F9F169611842
:10239000F161281BB062012F03DA96F83C000007B8
:1023A00005D5306901F80090306A401C3062F76250
:1023B000A5E02A46414600F06BF9F0692818F06163
:1023C000641B012F03DA96F83C10090704D5411C61
:1023D000F161316900F8019024B2A742B8BF3C46D0
:1023E00024B2224605EB0801F0693369C01800F0F9
:1023F0004FF9F0692018F061381BB0627FE0BAF144
:10240000610F14D14FF0700A16E0BC4204DA96F85E
:102410003C10090758BF27467F1E48BF0027BAF166
:10242000670F14BF4FF0450A4FF0650A04E0BAF198
:10243000410F08BF4FF0500AF1694A1C306918F883
:10244000013B0B54012F03DA96F83C10090702D523
:1024500002F80090521CF261012F10DB641E24B2BE
:10246000A742B8BF3C4624B222464146F369181839
:1024700000F00EF9F0692018F061381BB062F069C5
:10248000316900EB010808F801AB002D5CBF2B207F
:1024900008F8010B03D52D2008F8010B6D4200242C
:1024A00002AF2DB2012D0EDB0A22294600A800F052
:1024B000CDFD019807F8010B009D641C2DB2012D84
:1024C000F2DA022C06DA4AF02000652804BF302038
:1024D00008F8010B1CB9302008F8010B09E0012CA9
:1024E00007DB641E02A8205C303008F8010B012CC9
:1024F000F7DAF06931694018A8EB0000306296F80D
:102500003C0000F0140010280DD1B069F1690818E2
:10251000B16A0818316A0818F16A0818B16B884264
:10252000BCBF081A706206B0BDE8F08770B50446FB
:102530000D4616460020002E10D015F8011BE0684D
:10254000A2689047E060002802D14FF0FF3070BDD4
:10255000206B401C20630020761EEED170BD000071
:10256000686A6C747A4C00000000000000000000F3
:102570006E616E004E414E00696E6600494E460027
:102580003000F8B504460D4616461F4600F066FDBD
:102590003B4632462946204601B0BDE8F04000F0F7
:1025A00075BD50F8041B61B150F8042BD30744BF2C
:1025B000A9F101039A18002342F8043B091FFAD13C
:1025C000EFE770470278C9B28A421AB11CBF10F80F
:1025D000012FF9E718BF002070470000C9B2830738
:1025E00006D0521E22D310F8013B9942F7D11FE0CA
:1025F000083A13D302F1040241EA012141EA014100
:1026000050F8043B121F21BF4B40A3F1013C2CEAC0
:10261000030C1CF0803FF3D0C9B2001F083210F841
:10262000013B521E28BF91EA030FF8D818BF0120C2
:10263000401E704700F10103810704D010F8011B10
:1026400089B18107FAD10268B2F10131914311F0E9
:10265000803F04BF50F8042FF6E710F8011B11B1BA
:1026600010F8011BFBE7C01A704780B500F0F6FCBC
:10267000012002BD70B504460D46164600F0EEFC82
:10268000324629462046BDE8704000F0F1BC00000B
:102690004AB38B0707D0521E11F8013B00F8013BEB
:1026A00021D08B07F7D183071ED1103A07D330B45E
:1026B000B1E83810103AA0E83810F9D230BC53070E
:1026C00024BFB1E80810A0E8081044BF51F8043B4B
:1026D00040F8043BD20724BF31F8022B20F8022B2C
:1026E00044BF0B7803707047083A07D3B1E808106D
:1026F000083A40F8043B40F804CBF7D25307E4E72C
:1027000013F0004C03D55B42524263F100039CEA94
:10271000210C15D11B4229D109424CD12AB1844642
:10272000B0FBF2F002FB10C2704700F0CFBCFCD34C
:102730000022002370470B00020000210020704798
:1027400010B5644603D34942404261F10001FFF7EE
:10275000E1FF640004D34942404261F10001244298
:1027600003D55B42524263F1000310BD904271EB0E
:10277000030CE0D370B5B1FA81F4B3FA83F52C1BE6
:10278000A340C4F1200532FA05F63343A2405FF0BE
:102790000046E64002E05B085FEA3202841A71EB11
:1027A000030524BF204629467641F4D302000B00DE
:1027B0003000002170BD012AB9D970B5140C20D0A9
:1027C000B1FA81F4B2FA82F5C4F120046419B4F1CB
:1027D0002006D6D3B2405FF00044F440002502E06A
:1027E00052085FEA3303C61A71EB020E24BF30466B
:1027F000714664416D41F3D302000B0020002900B3
:1028000070BD0C46B1FBF2F102FB11452D0445EA07
:102810001045B5FBF2F402FB145580B240EA0545C1
:10282000B5FBF2F002FB105240EA044070BD00001C
:1028300070B4416801F0004201210D4B44681C4016
:10284000446001D104686CB104684568E60F46EA4B
:102850004505456064000460491EEC02F4D54468F7
:102860002340436043681A434260084670BC704787
:10287000FFFF0F004FF4001C1CEB410F94BF1CEB3B
:10288000430F09E041EA030C50EA4C0C52EA0C0CED
:1028900003D2994208BF9042704714BF8B428242D4
:1028A000704700004FF4001C1CEB410F94BF1CEB61
:1028B000430F09E041EA030C50EA4C0C52EA0C0CBD
:1028C00003D28B4208BF8242704714BF99429042A4
:1028D0007047000070B504460D466068C0F30A50AA
:1028E00040F2FF71884209D16068000302D120687C
:1028F000002801D0022070BD012070BD30B92046F3
:10290000FFF796FF012801DB002070BD012D0EDBD3
:1029100040F2FF71091A8D4209D36068002847BF51
:1029200000202F4900202F49C4E90001E4E741427B
:10293000A942616806DA2C4A1140401941EA005068
:10294000606049E001F0004162681203120B42F43A
:1029500080126260401E451905F13500352803D309
:1029600061600020206070BD002215F11F0F05DAA4
:10297000203522686068206000206060684213D0C3
:10298000521E9241D243C0F1200325689D4055EA72
:10299000D2722568C540666806FA03F32B432360AC
:1029A000636823FA00F06060606808436060B2F119
:1029B000004F03D80AD12078C00707D52068401CF3
:1029C0002060206810B96068401CB9E760688842E0
:1029D00002D12068002897D04FF0FF3070BD00BFB3
:1029E0000000F0FF0000F07FFFFF0F80F446400D75
:1029F00040EAC120490006D200F013F8004248BF67
:102A00006FF00040604700F00CF84FF00041884242
:102A10008CBF084640426047400D40EAC120490053
:102A20000CD240F00040490DA1F58061491C05D44D
:102A3000D1F11F0154BFC840C01770474FF00000CC
:102A400070470000010040F10880F446404200F069
:102A500004F851F000416047010009D0B0FA80F15C
:102A60008840C91CC1F58461090501EBD0214005EE
:102A70007047000070B44FF0004591EA030F44BF67
:102A80006B4000F02EBB841A71EB030604D26E403B
:102A9000001BB141121973414FF4001C1CEB410F94
:102AA00034BF7CEB430684E00C0DA4EB1356362EAA
:102AB0007DDC012E43DC45EAC32343EA525312BFB7
:102AC000D20292025B08240545EAC12141EA505135
:102AD000D2EBC020994125D407D1B0FA80F610FA84
:102AE00006F164D00020203608E0B1FA81F6B1404A
:102AF000C6F1200220FA02F21143B0404FEAF4740A
:102B0000B4EB465434F001064FEA74040AD8D6F503
:102B10000016760D04F00044F04061FA06F25040D1
:102B2000F1404840C00A40EA415021F0004128BF2E
:102B30005FEA500550F1000044EBD12137E045EA4F
:102B4000C323DB0A45EAC121C90AB6F120050EDD1F
:102B500042EA0242120CC5F1200603FA06F6EB40E7
:102B600042EA06056D42984161F100010DE062FA0A
:102B700006F5F240554063FA06FC82EA0C02F34087
:102B80005A406D42904161EB030111F4801F05D161
:102B9000641E620502D06D004041494121F480115C
:102BA000430875F1004350F1000041EB045170BC43
:102BB00070471CEB410F15D223F0004352EA430645
:102BC0000BD04FEA4C0CBCEB410F04D80C0D661E29
:102BD000342EB7DDEBE7801A994150EA410608BF71
:102BE0000021E4E708BF1CEB430F28BF6FF0000192
:102BF000DDE70000B0B581EA030C0CF0004C40F2B8
:102C0000FF7515EA11541DBF15EA1357AC42AF42C8
:102C100039E0E41923EA455343F48013C90241F033
:102C2000004141EA505EC7021100A7FB02020028E2
:102C30004FF00000EEFB01204FF00001E3FB072105
:102C400018BF42F00102401800214941E3FB0E0188
:102C5000A4F580640F0302D252004041494154F16F
:102C600001046CDD470872F1004250F1000051EBA5
:102C70000451A1F580115CBF41EA0C01B0BD4CEAE2
:102C800005510020B0BD05EA1357AC4214BFAF4256
:102C900041E050EA410E1CBF52EA430E02E0614699
:102CA0000020B0BD24423C441BD15FEA070EF6D0A1
:102CB000090302BF01460020AEF1140EB1FA81F7FC
:102CC000AEEB070401FA07FE0C37C7F1200100FA4A
:102CD00007F7C8404EEA000E23EA455343F4801339
:102CE000A2E733F00043B3FA83F704BFB2FA82FEDF
:102CF00077440B3FE41BB7F1200E2FBF02FA0EF30F
:102D0000BB40C7F1200E22FA0EFE38BF43EA0E0385
:102D1000BA40641C82E750EA410E14BF52EA430EE7
:102D20006FF000014FF4001717EB430F8ABF1946ED
:102D300017EB410FB5E74CEA05510020B0BDD4F1C7
:102D40000104B4F120070FDAC4F12007520828BFAC
:102D500042F0010210FA07F501FA07F7E1BF2A4332
:102D6000E0403843E1400FE0352C98DCC7F1200407
:102D700052EA400220FA07F218BF42F0010231FA8B
:102D800007F0A1400A43002172F1004250F1000017
:102D900051EB0C01B0BD0000F0B540F2FF7581EAC7
:102DA000030C0CF0004C15EA11541DBF15EA135723
:102DB000AC42AF42E5E0BC41C1F31301C3F31303DE
:102DC000801A994143F4801304D2641E40004941A3
:102DD00080185941C90241EA5051B1FBF3F603FB97
:102DE0001611A2FB0675D7EBC020A94102D2761EB0
:102DF00080185941C90241EA5051B1FBF3FE03FB6F
:102E00001E11A2FB0E75D7EBC020A94103D2AEF173
:102E1000010E80185941890241EA9051760546EA2F
:102E20008E2EB1FBF3F603FB1611A2FB0675D7EB52
:102E30008020A94102D2761E80185941C90241EA78
:102E400050514EEA060EB1FBF3F603FB1611A2FB3E
:102E50000675D7EBC020A94102D2761E80185941D1
:102E6000C90241EA5051B1FBF3F703FB1711A2FB72
:102E70000735D3EBC020A94167F100070CBF004222
:102E800047F0010766F3D5274FEA1E31B80814F55D
:102E9000806412DDBD0775F1004250EB0E5051EB1E
:102EA000045111F5801F5CBF41EA0C01F0BD4CF0EC
:102EB0007F6141F0E0410020F0BDBD076D0840EAB0
:102EC0000E5041F48011D4F10104B4F120060ADA65
:102ED000C4F120060200E04001FA06F3E140184385
:102EE000B24015430EE0342C13DCC6F1200445EA51
:102EF00040056D0820FA06F2154321FA06F0A140BC
:102F00000D43002175F1004250F1000051EB0C011E
:102F1000F0BD00205FEA0C01F0BDCFB992185B4113
:102F2000B3FA83F704BFB2FA82F6BF190B3FB7F1C9
:102F300020062FBF02FA06F3BB40C7F1200622FA93
:102F400006F638BF3343BA401CB1E419641E33E7B8
:102F50007F4231F00041B1FA81F404BFB0FA80F64B
:102F6000A4190B3CB4F120062FBF00FA06F1A140D2
:102F7000C4F1200620FA06F638BF3143A0403C1BBE
:102F80001AE7AC421ABF05EA1357AF4212E050EA03
:102F900041061CBF52EA4306BFE750EA41073046EC
:102FA00061461CBF41EA0551F0BD52EA430C08BF1F
:102FB000C143F0BD00204FF4001616EB410F98BF3F
:102FC00016EB430F08BF16EB410F24BFC14305E0CA
:102FD00016EB430F0CBF61464CEA0551F0BD0000F3
:102FE00080B5134800F0E7F80FF248010160416036
:102FF0008160C1600161416181610FF23C02426206
:103000008162C162016341630FF2300282630FF299
:103010003402C2630164416401BD10B5044800F08C
:10302000CAF80446206808B9FFF7DAFF204610BD49
:1030300000000020000000002E00000066616C739C
:1030400065000000747275650000000091FBF2F3EA
:1030500003FB1211C0E900317047000080B5DFF8B2
:103060000C0000F0A8F8806902BD00009404002064
:1030700030B438B90FF24400D0E90045C2E9004548
:10308000002001E00170012030BC704730B439B934
:103090000FF23000D0E90045C3E9004500200BE005
:1030A00012B96FF0010007E008B10A7802800978D0
:1030B000481E8041C043C00F30BC70470000000074
:1030C0000000000000000000000000007047000049
:1030D00070B44FF0004591EA030C44BF6B40FFF71A
:1030E000D2BC841A71EB030603D2001BB141121942
:1030F00073414FF4001C1CEB410F34BF7CEB4304C5
:1031000043E00C0DA4EB1356352E50DC45EAC323E7
:10311000DB0A45EAC121C912B6F120050DDD63FACB
:1031200005F6EB4086EA0305124218BF45F001059B
:10313000C01851F100010CD213E062FA06F5F2401A
:103140005540F3415A40B340F3405A40801859412A
:1031500007D349085FEA30005FEA350528BF45F02C
:10316000010501F58011420875F1004250F100009F
:1031700041EB045170BC4FF4001C1CEB410F38BFF5
:1031800070470020090D090570471CEB410F10D254
:1031900052EA43060BD0BCEB410F05D80C0DAB43F4
:1031A000661E342EB5DD02E0AB438018594170BC79
:1031B000704770BC704770472DE9F84F00F0B1F8C8
:1031C00000F0C6F8DFF8D4554FF48071284600F0BF
:1031D00085FB4FF48041284600F082FBDFF8C045B4
:1031E00004F20C00A06000202080A0700420E07099
:1031F00000F0B4FA4FF48061284600F068FB002824
:10320000F8D0DFF8A00500684FF47A71B0FBF1F058
:10321000B0F1807F1DD2DFF890150002000A401E39
:103220004860DFF88805F0220270002088600720DF
:10323000086000F049FA00F041F900F0E4F900F00C
:10324000FFF800F036FADFF868A5DFF868B52A273E
:1032500004E0FEE700F061F800F040FBA0680188A0
:1032600007FB01F8418807FB01F981884D01C188FE
:103270004E0100897843A178012906D1DFF838157D
:10328000884209D24FF4005004E029B9584503D3CD
:103290004FF4805000F06EFB2078012809D1DFF850
:1032A0001C0580454FF40061504605D200F016FB26
:1032B00004E04FF40061504600F012FB2078012832
:1032C00007D1C5F56250A0804CF2513180B28842DE
:1032D00001D34CF25030A080DFF8E4048145B9D32B
:1032E000A078012816D1E078012803D9801E012892
:1032F00008D90CE0A088B04200F00FF8ACD200F082
:10330000EFFAABE7D94500F008F8A5D3F7E700F0EE
:1033100004F8F4E700F001F8F1E74FF4807150464B
:10332000704780B5002000F080FB002000F084FB97
:103330000121012000F0C0FB0121DFF8880400F02A
:10334000CDFB012140F61D60BDE8044000F0BDBB8F
:103350003EB54FF4E04000F062F8DFF8404400F082
:10336000E9F94FF4106000F05AF8DFF8445400A96E
:10337000284600F04DFA012000F04BF8182000F02C
:10338000D7F94FF4807000F044F8102000F0D0F925
:10339000F020ADF800000020ADF8020000A928469A
:1033A00000F036FA0220ADF8000000F0C3F94FF447
:1033B000406000F02EF8042000F0BAF9C02000F0C0
:1033C00028F81C2000F0B4F90A21012000F08AFA44
:1033D0000B21012000F086FA4FF48060019000205C
:1033E0008DF80800102000F023F84FF400600190E1
:1033F00000208DF80800082000F01AF8DFF8C80354
:10340000016841F44F510160416841F44F514160FE
:1034100037BDADF8000003208DF802007047ADF80D
:10342000000003208DF8020010208DF80300704783
:103430008DF8090001208DF80A0001A800F068BA93
:1034400080B5172000F02CF801208DF802008DF8CF
:10345000030000A800F081FB282000F021F800F014
:1034600025F81C208DF8000002208DF801000020B6
:1034700000F01CF81D2000F013F8032000F016F8EF
:103480004FF4407000F064FBD04800210170D04937
:103490004FF000420A60102242700120486001BDD6
:1034A0008DF8000000208DF8010070478DF80200B3
:1034B00001208DF8030000A800F04FBB70B590B05C
:1034C000C44C204600F080FBC3480590C3480690DA
:1034D00000200790032008900020099080200A9087
:1034E0004FF400700B904FF400600C9020200D9072
:1034F0004FF400500E9000200F9005A9204600F0D8
:10350000C4FB0121204600F0DBFB4FF4C02600F095
:103510006CF84FF4602400F06FF8B14D00A9284614
:1035200000F0F6FB012301220621284600F03EFCB4
:10353000012302220721284600F038FC0123032240
:103540000921284600F032FC0121284600F007FC42
:1035500000F04BF800F050F8A24C00A9204600F013
:10356000D7FB01231A460521204600F01FFC01234A
:1035700002220421204600F019FC01230322092124
:10358000204600F013FC0121204600F048FC0121F8
:10359000284600F0DBFB284600F0EBFB284600F055
:1035A000EDFB0028FAD1284600F0ECFB284600F09D
:1035B000EEFB0028FAD10121204600F0C7FB20468F
:1035C00000F0D7FB204600F0D9FB0028FAD12046B6
:1035D00000F0D8FB204600F0DAFB0028FAD10121E8
:1035E000284600F0DAFB10B070BD009601208DF87F
:1035F00004008DF80500704702940020039003201A
:103600008DF81000704738B54FF6FF75764CA582DF
:1036100064480068B0FBF5F0281820820020E082A2
:10362000608204F110014FF0804000F005FC01229F
:1036300001214FF0804000F0C6FC60202080012076
:1036400060804AF6AA20E0800020208121464FF0C9
:10365000804000F036FC012202214FF0804000F053
:10366000B2FC01214FF0804000F0A3FC4FF4B460A5
:10367000A08225820020E08260825C4D04F110016E
:10368000284600F0D9FB60202080012060800020C7
:10369000E08020812146284600F053FC012211469B
:1036A000284600F090FC01212846BDE8344000F097
:1036B00080BC10B54E4C204600F0C5FC02212046CF
:1036C000BDE8104000F0ACBC10B582B0012144F25E
:1036D000050000F0FAF918208DF803004FF400708F
:1036E000ADF8000002208DF80200314C00F022F805
:1036F00004208DF803004FF48060ADF8000000F066
:1037000019F83C494FF4E130086000204860088116
:1037100088810C204881204C204600F079FD012151
:10372000204600F0C1FD0FF2D40000F0D3FD13BD20
:103730008DF8030000A9204600F06AB82E48016801
:1037400011B10168491E0160704710B5134C4FF468
:10375000005100F017F84FF480510CE010B54FF411
:103760000061134800F0BAF80C4C00F009F800F0C2
:1037700007F84FF400512046BDE8104000F0AEB805
:103780004FF48051204600F0ABB84FF4405103484D
:1037900000F0A6B80000000000380140000C014015
:1037A000D0050020B400002010E000E023ED00E090
:1037B000000801408132020028170200590F020060
:1037C000A086010003002010000401401FE400E077
:1037D00000E100E0080002404C240140DC0500202C
:1037E0000024014000280140B405002000040040EE
:1037F00000540040100600202C0600200A0D205125
:10380000424F20456E6572677920626F6172640075
:103810002DE9F041CB7803F00F02DB0644BF8B7833
:103820001A430B8801240F25DEB21EB3D0F800C066
:10383000002604FA06F7BE460EEA0308F04514D146
:103840004FEA860E05FA0EF82CEA080C02FA0EFE74
:103850004EEA0C0C91F803E0BEF1280F08BF476157
:1038600003D0BEF1480F08BF0761761C082EE0D3D5
:10387000C0F800C04FF48076B34226D3D0F804C01D
:10388000002606F1080704FA07F7BE460EEA030809
:10389000F04515D14FEA860E05FA0EF82CEA080C11
:1038A00002FA0EFE4EEA0C0C91F803E0BEF1280F6E
:1038B00008BF476191F803E0BEF1480F08BF0761F8
:1038C000761C082EDDD3C0F804C0BDE8F081806806
:1038D0000140080018BF0120C0B270470161704765
:1038E0004161704730B501F0030292008910074B27
:1038F00053F821400F259540AC4343F8214053F83D
:1039000021409040204343F8210030BD0800014091
:1039100030B50168CB43234982792AB30A4614683B
:103920002340136053680468A34353600379CC18A1
:10393000236805682B43236093680468A34393605E
:10394000D3680468A343D36043790568102B07D17B
:10395000916829439160D16800680843D06030BD08
:10396000CC182068284303E000790C182068184020
:10397000206030BD0C490A6810430860704709494F
:103980000A6802404969014203D0100002D00120B8
:1039900000E00020C0B27047000004490860704792
:1039A0000000000000040140100401401404014024
:1039B0005D490A6822F480320A600A6822F4802293
:1039C0000A60B0F5803F03D0B0F5802F04D0704777
:1039D000086840F4803002E0086840F4A0200860E5
:1039E000704780B500200090312000F089F80099E0
:1039F000491C00910099B1F5A06F01D00028F3D0C7
:103A0000312000F07DF800B1012002BD4849086076
:103A1000704746490A68920850EA82000860704779
:103A20004248006800F00C00704740490A6822F4E0
:103A3000E0621043086070473C490A6822F4404243
:103A4000F7E730B539490A683A4B02F00C02082A08
:103A50000ED10A680C68C2F38342921C364D55435E
:103A6000E40301D42B4603E00C68A403FAD45343C7
:103A700003600B68314A0468C3F303139B5C24FAA8
:103A800003F343600B684468C3F302239B5C24FA8E
:103A900003F383600B684468C3F3C2239B5C24FA7E
:103AA00003F3C3600968C368C1F381318918097CD5
:103AB000B3FBF1F1016130BD214A0029116814BF47
:103AC000084321EA0000106070471E4A002911686F
:103AD00014BF084321EA0000106070471A4A002909
:103AE000116814BF084321EA000010607047174AAC
:103AF0000029116814BF084321EA000010607047D4
:103B00004109094A012908BF116803D002290CBFE5
:103B1000116A516A012200F01F0002FA00F0084009
:103B200018BF0120C0B270470010024004100240CC
:103B30006000424200127A0000093D00900000201F
:103B400014100240181002401C10024010100240D5
:103B50001849084318490860704770B503781A4639
:103B60000121C478ECB1144B1B6803F4E063C3F586
:103B7000E0631B0A4478C3F10405AC4085780F2646
:103B800026FA03F32B4023431B010C4C13550078FA
:103B900042110B4B00F01F0001FA00F043F8220025
:103BA00070BD5011074A03F01F03994042F82010DE
:103BB00070BD00000000FA050CED00E000E400E03C
:103BC00000E100E080E100E001684FF6FE72114084
:103BD00001600021016041608160C1603D493E4A51
:103BE000904204BF086840F00F004CD03B4A90421E
:103BF00004BF086840F0F00045D0394A904204BF45
:103C0000086840F470603ED0364A904204BF0868AD
:103C100040F4704037D0344A904204BF086840F402
:103C2000702030D0314A904204BF086840F47000E0
:103C300029D02F4A904204BF086840F0706022D01B
:103C40002C492D4A904204BF086840F00F001AD05A
:103C50002A4A904204BF086840F0F00013D0284A76
:103C6000904204BF086840F470600CD0254A90422E
:103C700004BF086840F4704005D0234A904203D145
:103C8000086840F470200860704702681F4B1A40B3
:103C90008B681A430B6A1A430B691A434B691A4320
:103CA0008B691A43CB691A434B6A1A438B6A1A43CE
:103CB0000260CA6842600A6882604968C1607047F1
:103CC0000029016812BF41F001014FF6FE72114058
:103CD0000160704704000240080002401C000240DE
:103CE0003000024044000240580002406C00024094
:103CF0008000024004040240080402401C04024008
:103D00003004024044040240580402400F80FFFF88
:103D10004268474B1A400B681A430B7942EA032268
:103D200042608268434B1A40CB681A438B681A433F
:103D30004B7942EA43028260C26A22F47002097C33
:103D4000491EC9B242EA0151C16270470029816827
:103D500012BF41F001014908490081607047002904
:103D600081681ABF4FF48072114321F48071816021
:103D70007047816841F008018160704780680006E3
:103D8000C00E07E0816841F00401816070478068DF
:103D90000006800E00F0010070470029816814BF02
:103DA00041F4A00121F4A0018160704770B50324A3
:103DB00007250A290AD3A1F10A067443C668A5405B
:103DC00026EA0505A3402B43C36007E04C43066980
:103DD000A54026EA0505A3402B43036105231F24C4
:103DE000072A08D2521E5A43436B9440A343914082
:103DF0001943416370BD0D2A08D2D21F5A43036B89
:103E00009440A34391401943016370BD0D3A5A4356
:103E1000C36A9440A34391401943C16270BD002915
:103E2000816814BF41F4801121F4801181607047D2
:103E3000FFFEF0FFFDF7F1FF30B50488DFF8D02179
:103E4000DFF8B431984210D090420ED0B0F1804FDC
:103E50000BD0DFF8A851A84207D0DFF8A451A84240
:103E600003D0DFF8A051A84204D14FF68F752C4043
:103E70004D882C43DFF89051A84208D0DFF88C51D0
:103E8000A84204D04FF6FF452C40CD882C43048037
:103E90008C8884850C88048598420DD090420BD084
:103EA000DFF87021904207D0DFF86C21904203D0F8
:103EB000DFF86821904201D1097A018601218182CF
:103EC00030BD30B5028C4FF6FE731A400284048C6C
:103ED0008288038B4FF68C752B400D882B434FF651
:103EE000FD752C400D892C434D882C43DFF808517B
:103EF000A8420FD0DFF81851A8420BD0DFF81451B8
:103F0000A84207D0DFF81051A84203D0DFF80C51C7
:103F1000A84210D14FF6F7752C404D892C434FF62F
:103F2000FB752C408D882C434FF6FF452A408D8928
:103F30002A43CD892A4382800383C98881860484E9
:103F400030BD70B5028C4FF6FF631A400284048CBA
:103F50008288838B4FF68C752B400D882B434FF650
:103F6000FF552C400D894E88354344EA0524DFF87F
:103F70008850A84203D0DFF89850A84213D14FF2DE
:103F8000FF752C404D8944EA05244FF6FF352C403F
:103F90008D8844EA05244CF6FF752A408D89CE8928
:103FA000354342EA051282808383C988818704846D
:103FB00070BD0029018812BF41F001014FF6FE7269
:103FC000114001807047002A828914BF114322EA00
:103FD00001018181704781877047028A808908408A
:103FE0000A4202D010B1012000E00020C0B27047A8
:103FF0000000C94301827047002C014000040040CA
:1040000000080040000C0040001000400014004078
:10401000003401400040014000440140004801409C
:1040200082884FF400731A43828082884FF4807331
:104030001A438280022981880CBF41F4006141F457
:104040008061818070472DE9F04186B004460121EE
:104050000820FFF73AFD01210120FFF72DFD664DF5
:104060004FF48066DFF87C81444515D101214FF47F
:104070000010FFF733FD4020ADF8000000F068F8B5
:10408000802000F05FF801214FF40010FFF72FFDB2
:1040900000214FF4001014E001214FF48000FFF7DD
:1040A0001DFDADF8006000F053F84FF4006000F023
:1040B00049F801214FF48000FFF719FD00214FF46A
:1040C0008000FFF714FD0020ADF808004BF6FF70EC
:1040D000ADF80A002820ADF80C00ADF80E604FF4E2
:1040E0008040ADF810004548019001A9404600F01D
:1040F00003F93020ADF80C0001A9414800F0FCF8AC
:104100004FF440564FF6FF773E4D444508D1384CAA
:104110002046FFF759FD3C4800F024F8324C07E0F8
:10412000344C2046FFF750FD384800F01BF82F4C68
:104130002046FFF749FD29462046FFF7A6FD06B0B9
:10414000BDE8F081ADF8000000A92846FFF760BB8C
:1041500003208DF802001C208DF8030000A92846DA
:10416000FFF756BB2860002068601020A860EF6051
:1041700000202861802068610020A861E861286231
:104180006E62A86229462046FFF77FBDF8B51E4D36
:104190001E4E144F1B4C002B61600CD11021A160EE
:1041A000E260B84202BF2560114D00210CD02660AC
:1041B000104D002108E00021A160E260B84207BF75
:1041C0002560094D2660094D2846FFF779FD2146F7
:1041D0002846FFF75AFD01212846BDE8F440FFF7C5
:1041E0006FBD0000005400408000024058000240B3
:1041F0006C00024044000240000C0140801A06009E
:10420000005800408805002010540040105800401D
:1042100030B585B004460D46208A4CF6FF71084043
:10422000E98808432082A0894EF6F3110840A98846
:1042300008432989084369890843A081A08A4FF669
:10424000FF410840A9890843A08200A8FFF7F9FBB5
:10425000144884420CBF03980298296819225043DD
:10426000A28912044CBF49008900B0FBF1F164221D
:10427000B1FBF2F00001030902FB1311A3891B0437
:1042800006D5C9003231B1FBF2F101F0070105E0BA
:1042900009013231B1FBF2F101F00F010843208135
:1042A00005B030BD003801400029818912BF41F4BA
:1042B00000514DF6FF72114081817047C905C90D4B
:1042C0008180704700880140080018BF0120C0B2FB
:1042D000704700000EB400B582B003A9009100AB96
:1042E00002460121034878440A30FDF70FF906BC65
:1042F0005DF810FBC708000070B586B004460D4697
:10430000A68800A8FFF79DFB02992948B1FBF0F0B1
:104310004FF6C07232400243A28022884FF6FE73ED
:104320001A4022802A68234B9A4208D25200B1FBDD
:10433000F2F18AB2042A38BF042189B220E0EB8866
:104340004BF6FF76B34204BF02EB4202B1FBF2F13F
:1043500006D019235A43B1FBF2F141F4804189B2EE
:104360000A0504BF41F0010189B241F4004189B25C
:1043700080B24FF4967250434FF47A7290FBF2F091
:10438000401C2084A183208840F0010020802088E8
:104390004FF6F5310840A988084369890843208011
:1043A000A88929890843208106B070BD000000005B
:1043B00040420F00A186010001B49DF800009DF865
:1043C000011000EB41009DF8021000EB81009DF808
:1043D000031000EBC100C0B201B0704780B54FF4CC
:1043E0008030FFF7E5FAFFF7FCFADFF8C415087034
:1043F00001280DD1FFF70AFB3920FFF781FB0028C8
:10440000FAD00220FFF705FBFFF70AFB0828FBD1D3
:1044100001BD38B50446DFF89C55E1B22846FFF7E8
:104420004DFF40212846FFF74DFF0028F9D02046D8
:1044300032BD7047FEE7FEE7FEE7FEE770477047D4
:10444000704710B5FFF77AF9DFF86C454FF48061DB
:10445000DFF86805FFF73BFA002806BF2088401CFC
:1044600000202080208840F6B83188420BD1DFF848
:104470005005016801F4E061DFF84825114301604F
:10448000BFF34F8FFEE710BD70B5DFF83C45DFF896
:104490003C654020FFF773FA48B10120B0710F204E
:1044A0003070012070710020E07040201CE0DFF8C7
:1044B00020558020FFF763FA40B10320E07040F2FE
:1044C00074412846FFF787FD80200DE04FF480708F
:1044D000FFF755FA60B10220E0704FF43E712846B4
:1044E000FFF779FD4FF48070BDE87040FFF755BAD3
:1044F0004FF40070FFF743FA00281AD0FFF745F990
:1045000000207071207060704FF48041DFF8AC04BF
:10451000FFF7E6F94FF40070FFF73FFAA0780028A4
:1045200007D100F007F800F090F800212846FFF7C7
:1045300052FD70BDDFF89C444FF480712046FFF7B8
:10454000CFB9F8B5DFF87454DFF88464DFF8787415
:104550004FF48060FFF713FA88B3DFF870442079D6
:104560003978012909D16179084325D10120A07149
:104570000F202070012060711EE0E9B9E0B9FFF75B
:104580002DFF01203870B87838B9FFF7DEF84FF406
:10459000B4613046FFF71FFD01E0FFF7DFF80120AF
:1045A00078704FF480412846FFF798F90120A071F8
:1045B00005206070012020714FF480601AE04FF4F4
:1045C0000060FFF7DCF920B1FFF708FF4FF400604F
:1045D00010E04FF48050FFF7D2F978B1FFF7BEF842
:1045E0004FF4A0713046FFF7F6FC0120B870F87068
:1045F0004FF48050BDE8F240FFF7CFB94FF40050C0
:10460000FFF7BDF900281FD0FFF79FF80020B87012
:104610000420F8704FF40050FFF7BFF9387870B9F4
:10462000FFF7B3F800207870FFF784FF00F00DF873
:104630004FF480412846FFF753F9002101E04FF481
:10464000B4613046FFF7C7FCF1BD4FF4006120466E
:10465000FFF746B970B5DFF86443DFF87053012106
:104660004FF08040FFF7B9FC002843D0287928B1EB
:104670006878401E6870C0B200B92871687908B3C4
:104680002878401E2870C0B2E0B9FFF77EF80020FD
:104690006871CD4E307070704FF480412046FFF746
:1046A0001FF9B07870B9CB4E4FF480713046FFF7E8
:1046B00017F94FF400613046FFF712F90021C448A2
:1046C000FFF789FC687A10B1E878401EE870287A14
:1046D00010B1A878401EA870A87948B1E87938B11F
:1046E0004FF480712046FFF7F9F80020A871E871B7
:1046F00001210CE002214FF08040FFF76EFC50B129
:10470000A87918B1FFF718FF0120E87102214FF0D6
:104710008040FFF76EFC70BD2DE9F041AC4C0121EB
:104720002046FFF75AFC00285BD0AB480068418860
:104730002A2202FB01F881884901C0884601A34F63
:10474000387AA14D2A78012A0BD143F6982291425A
:1047500007D27A78024304D10220B870012038725F
:104760000DE060B143F69920814228BF0020F6D2C7
:10477000B87820B938724FF40070FFF7FBF8787AF8
:10478000E978042910D1954988450DD260B90520F2
:10479000F87001207872E878012815D1904880459A
:1047A0001BD34FF4807016E00028F4D08D4880456C
:1047B00002D2A878012801D10020EBE7F878002880
:1047C000E9D17872402006E0022806D142F210704A
:1047D000864202D28020FFF7CDF801212046FFF764
:1047E00008FCBDE8F081F0B583B000200190009096
:1047F0007D4CA08A01907D4D7D4E0198800728D583
:10480000714F00A839460422FDF742FF0098FFF7D8
:10481000D3FD30707048006840882A2148430090DA
:10482000FB784FF4616240F6E441042000F0ECF8BC
:1048300070704FF6FF7700233A4631462046FFF767
:10484000A5FC01233A4629462046FFF79FFC208B12
:1048500000900198C00705D56648007820820020A6
:10486000019000900098C00770D563486349019A91
:10487000920725D5624A126882B90A700A78531CD9
:104880000B70925D22820268521E02600268A2B919
:10489000A2884FF6FF331A40A2800EE000224A7031
:1048A0000268012A09D122884FF6FF331A4022807C
:1048B00022884FF400731A43228000220192009252
:1048C000019A02F08402802A13D1026872B10A7838
:1048D000531C0B70925D22820268521E02600268B5
:1048E00022B9A2884FF6FF331A40A280002201921B
:1048F0000092019A02F08402842A0CD122884FF49B
:1049000000731A432280A2884FF6FF531A40A280F8
:10491000002201920092019A520617D54A78531C40
:104920004B70218A51550168491E016000680128B9
:1049300009D120884FF6FF310840208020884FF4AD
:10494000007108432080002001900090F7BD81B0E5
:10495000002000902B48018800910099490506D558
:1049600001884FF6FF32114001800021009100992B
:10497000890506D501884FF6FF32114001800021DC
:1049800000910099C90506D501884FF6FF621140D4
:104990000180002100910099090506D501884FF298
:1049A000FF72114001800020009001B070470000AC
:1049B000360600200038014034060020000C01407B
:1049C0000CED00E00400FA05D005002020060020D0
:1049D0000004004000080140D805002068B901002B
:1049E000992E020069B90100005400408C02002099
:1049F0008C03002000060020080600202A06002064
:104A0000040600201454004010B5029C0022012B23
:104A100006D018D3032B07D004D3042B06D012E002
:104A2000322210E04B220EE064220CE06423634348
:104A30004843B3FBF0F0B0F5577F04D9A0F55770A9
:104A40008C21B0FBF1F2D0B210BD000082B035482D
:104A5000016841F0010101604168334A1140416041
:104A60000168324A11400160016821F4802101602F
:104A7000416821F4FE0141604FF41F018160002173
:104A800001910091016841F480310160016801F4F5
:104A9000003100910199491C0191009919B90199BE
:104AA000B1F5A06FF2D10168490C01F0010100914C
:104AB0000099012930D11E490A6842F010020A60AB
:104AC0000A68920892000A600A6842F002020A60CC
:104AD0004168416041684160416841F480614160E2
:104AE000416821F47C114160416841F4E811416062
:104AF000016841F08071016001688901FCD541685D
:104B0000890889004160416841F0020141604168C3
:104B100001F00C010829FAD106484FF0006101604C
:104B200002B07047001002400000FFF8FFFFF6FEE1
:104B30000020024008ED00E010B5084979441C311E
:104B4000074C7C441A34A14206D0081D0A6851184B
:104B500088470146A142F8D110BD00BF08000000FF
:104B6000280000003FDAFFFF80050000B8000020A9
:104B7000000000006FC8FFFFB8000000380100000F
:104B8000000000200000000000F009F8002801D01B
:104B9000FFF7D2FF0020FEF70FFB00F002F8012024
:104BA000704780B500F002B800BF00000746FCF770
:104BB00043FC3846FCF79AFCFBE738B504460D4643
:104BC000284600F005F8A84218BF0024204632BD50
:104BD0000149FFF71EBC00BF50000020014880477C
:104BE000014800474D4A0008ED4B0008C046C0464A
:104BF000C046C046FFF7C8FFFFF71BBCFFF71ABC53
:104C0000FFF719BCFFF718BCFFF717BCFFF716BC7E
:104C1000FFF715BCFFF714BCFFF713BCFFF7FEBF8F
:104C2000FFF7FEBFFFF7FEBFFFF7FEBFFFF7FEBFB8
:104C3000FFF7FEBFFFF7FEBFFFF7FEBFFFF7FEBFA8
:104C4000FFF7FEBFFFF7FEBFFFF7FEBFFFF7FEBF98
:104C5000FFF7FEBFFFF7FEBFFFF7FEBFFFF7FEBF88
:104C6000FFF7FEBFFFF7FEBFFFF7FEBFFFF7FEBF78
:104C7000FFF7FEBFFFF7FEBFFFF706BCFFF7FEBF63
:104C8000FFF7FEBFFFF7FEBFFFF7FEBFFFF7E2BC77
:104C9000FFF742BDFFF7A7BDFFF759BEFFF7FEBF05
:104CA000FFF7FEBFFFF7FEBFFFF74BBCFFF7FEBFEE
:104CB000FFF7FEBF00000000000000000000000041
:104CC00000000000000000000000000000000000E4
:104CD000FFFFFFFFFFFFFFFF0000000000000000DC
:104CE00000000000000000000000000000000000C4
:104CF000000000000000000000000000FFFFFFFFB8
:104D0000FFFF000002040101000500205005002003
:104D10000005002000050020000500208D00002077
:104D200074000020000000000000000000000000EF
:104D30000000000000000000000000000000000073
:104D4000000000000000000001020304010203044F
:104D50000607080902040608000000000000000021
:0C4D6000010203040607080900A24A042F
:0400000508004BEDB7
:00000001FF
